S0110000424D53322E3043414E2E73726563CF
S1130000582B002079270000752700007527000071
S113001000000000000000000000000000000000DC
S11300200000000000000000000000007527000030
S11300300000000000000000752700007527000084
S113004075270000752700000103000075270000D4
S1130050752700007527000075270000752700002C
S1130060D50D0000A9190000B9190000C919000034
S1130070D9190000E9190000F9190000450500002C
S113008075270000C90C0000D90C0000E90C000021
S113009075270000752700007527000075270000EC
S11300A075270000752700007527000075270000DC
S11300B075270000752700007527000010B5064C51
S11300C02378002B07D1054B002B02D0044800E015
S11300D000BF0123237010BD800000200000000039
S11300E0AC50000008B5084B002B03D00748084962
S11300F000E000BF07480368002B00D108BD064B91
S1130100002BFBD09847F9E700000000AC5000003A
S113011084000020AC5000000000000002680421AC
S1130120074B196001680B69002BFCD1118802335D
S11301300B43138002681369002BFCD17047C0463F
S113014000E100E010B50268042480230749CC5084
S113015001680B69002BFCD1138802218B431380A7
S113016002681369002BFCD110BDC04600E100E019
S113017038B5041C0568094B984700232386638619
S113018022681369002BFCD12A88013313432B8086
S113019022681369002BFCD138BDC046450100001C
S11301A010B5CB88C2889B1A9A060B795C044B79EC
S11301B09B0523438C782403234313430279002AA9
S11301C005D1CA78002A02D080225202134348780B
S11301D080010A781043184310BDC046F8B506687C
S11301E01723012A15D8141C0D1C071C0A4B984709
S11301F03369002BFCD1E200B218106239680B6934
S1130200002BFCD1297A2433D1543A681369002B8A
S1130210FCD1181CF8BDC046A101000038B5051C6E
S1130220141C0160164A5369802189000B435361F1
S11302300022144B1A61144B9847E3782B71A3885E
S1130240EB80124B1D602A682388A179002902D112
S113025008310B4301E00E490B43E178002901D139
S113026040310B43A178002901D080210B43138036
S1130270211C0831281C0022064B984738BDC04673
S1130280000800400014004071010000DC0A002056
S113029008800000DD010000092A01D917200AE0C6
S11302A0931C9B001950018E012393401A1C0A438E
S11302B092B202860020704710B50368092902D162
S11302C00E4A5A8111E0072905D801228A40FF24E9
S11302D022405A8109E0802252000C1C083CA240B2
S11302E0141C8022520022405A81428E01238B40EA
S11302F0191C114389B2418610BDC0460080FFFF1E
S1130300F8B55F4656464D464446F0B4234B1B6849
S11303109A461E685B8E5246128E1A409046B389E6
S1130320728913401AB2002A08DA43469B0502D5A3
S11303305346DB6A98471A4BB38128E0FF271F40D6
S11303401AD0002401239946FE339B46231C4D46B4
S1130350A5402F4209D0424622414946114204D0C9
S113036002339B0052469B5898475B461D40B5811B
S11303700134082CEAD10AE0DB0508D54346DB0545
S113038002D553469B6A984780235B00B3813CBCEB
S113039090469946A246AB46F8BDC046DC0A00200A
S11303A00080FFFF10B5041C01210A4B9847002868
S11303B00FD0802212028223DB05DA610648074B44
S11303C09847074A136801331360201C0121054B29
S11303D0984710BD6D0D0000CC470000C92B0000EC
S11303E008010020A10D000010B50948094B9847E9
S11303F0094C0123237220780530C0B23C21074BFD
S1130400984721700648211C0022064B984710BDCE
S113041010480000C92B0000140B0020F52900002F
S1130420E00A0020DD01000070B582B0051C0E1C3E
S113043000226B46DA80064C281C6B46991DA047A7
S11304400028F9D16B4606331B88337002B070BDA7
S1130450C51D000070B5051C8CB2034E281C211C60
S1130460B0470028FAD170BD991D000010B584B0C2
S11304700023009388231B040193009B8004124CE7
S11304802040184300900F2313401804019C0F4B85
S1130490234003430193002A07D00023181C684417
S11304A0CC5C047201339342F8D1094C201C694698
S11304B00022084B984723689A69920702D40121C5
S11304C0D022995004B010BD0000FC1FFFFFF0FFC4
S11304D0D0000020A514000010B584B000230093C0
S11304E088231B040193009B8024E4052343C0005C
S11304F0C008184300900F2313401804019C0E4BAE
S1130500234003430193002A07D00023181C6844A6
S1130510CC5C047201339342F8D1084C201C694628
S11305200022074B984723689A69920702D4012155
S1130530D022995004B010BDFFFFF0FFD00000207E
S1130540A5140000F0B5474680B484B0814B1B6805
S11305501A6D0392039A120372D5802212031A654C
S113056000230293029B0F2B6AD87A4B98461F1CD8
S113057002991F290BD8982342461268D0580122A9
S1130580131C8B4003405A1E9341DBB20AE09C23A8
S11305903A68D05820390122131C8B4003405A1E5C
S11305A09341DBB2002B45D0029B0193029B1F2B8E
S11305B009D8684A146898202258012199400B1CD4
S11305C01343235009E0634A14689C202258203BBB
S11305D0012199400B1C13432350019A5E4C5D4842
S11305E0211C5E4B984723685B0003D55C485D4B38
S11305F0984702E05C485B4B984700230293564BB4
S11306005B681B031B0F029A934210D9574C524D3F
S1130610574E029BEB18197A201CB047029B0133FA
S113062002936B681B031B0F029A9342F1D8514843
S11306304C4B9847029B01330293029B0F2B97D993
S1130640039BDB0738D5434D2B6801221A654A4CBE
S11306502268281C49494A4B9847236829683F2245
S1130660134069328B502368013323602368102BB5
S113067002D10022404B1A6042483A4B984700236B
S113068002933E4B5B681B031B0F029A934210D9E3
S1130690364C3A4D364E029BEB18197A201CB04763
S11306A0029B013302936B681B031B0F029A934254
S11306B0F1D830482B4B9847039BDB0638D5254DA2
S11306C02B6810221A65304C2268281C2F49304BA5
S11306D09847236829683F22134069328B50236866
S11306E0013323602368102B02D10022264B1A60A9
S11306F028481C4B984700230293244B5B681B0338
S11307001B0F029A934210D9184C204D184E029B8D
S1130710EB18197A201CB047029B013302936B68D3
S11307201B031B0F029A9342F1D812480D4B9847B2
S1130730039B1B0102D4039BDB0007D5054B1B68FD
S1130740C02252051A651448064B984704B004BCED
S11307509046F0BDD00000200C010020B51300002D
S113076050480000C92B000094480000D8480000FD
S1130770D12A0000E04800001C0100209C00002059
S113078005140000E4480000CC000020AC00002068
S113079055140000244900006449000030B589B0B4
S11307A003AAB0231B01138000239370FA21C9000C
S11307B0918001249471D372D47013725372937222
S11307C014735473FC23DB00D3811474144D281C5C
S11307D01449154B98476B461C722D681A78531EA2
S11307E09A41D2036B465B78002B02D080235B00D6
S11307F01A4300230124FF20191C69448978002925
S113080003D0211C994001400A430133082BF3D142
S11308106B681A436A600248044B984709B030BDBC
S1130820E00A0020002400401D0200001D01000019
S113083010B5054C201C05490822054B9847201C7F
S11308400821044B984710BDE00A0020E90300008A
S113085099020000B9020000F0B5474680B49AB08E
S1130860C94B98470124C94B1C70BFF35F8F62B614
S113087002AA8023DB05029300235360FF21118128
S11308809372D372D33954540131545401315354B3
S1130890013153541363053153540131535453619B
S11308A000211382D176D3611384538411762433C7
S11308B0D1545176113B93761333D154013BD15427
S11308C096231B029362C4239B03D36001235B42E0
S11308D09363D363AE4B1364AE4B5364AE4DAF4BD3
S11308E01D60AF49AF4B1960AF49B04B1960281C6C
S11308F0AF49B04B9847B04F3B6898680021AF4E62
S1130900B0473B6858680021B0472E68301CAC4B98
S113091098471F2318408440AA4B1C602B68DA694F
S1130920002AFCD1326802231343336002AC201C3A
S1130930A54B98470C23A3700B3B237000236370D3
S1130940E37017A8211CA14B984717A80521A04BB9
S1130950984714A89F49A04B984717A814A99F4BE0
S1130960984717A801219E4B98479E4B98479E4B4A
S113097098479E489E4B984700239E489E49DAB26A
S11309801A54803A5A540133082BF8D101AE00248A
S113099074700125B570F470023B984633701820CA
S11309A0311C964FB847434633701920311CB84761
S11309B002AA0823137054709470D5701571557180
S11309C09571D47114725472093B53811473547326
S11309D09473D4730333137453749574D574884B1C
S11309E05361157654769576D47614775477854C7E
S11309F0201C8549854B9847201C854B98478022AD
S1130A001202704B1A602268536DC02149050B43D2
S1130A1053658048804B9847804C17A8A04700280E
S1130A20FBD17F4C7F4E804F67256D44201C291CD1
S1130A30B0472B78303BDAB2382AF5D89300FB580C
S1130A409F467448744B9847EEE77848724B984732
S1130A50774B0293029BDB0ADB02022213430293CD
S1130A60029A744B1340744A13430293029BE0228C
S1130A70920513430293634D281C02A900226F4B75
S1130A8098472A68536D802109030B435365CBE7CC
S1130A906B48614B9847664B0293029A654B13402F
S1130AA0684A13430293574D281C02A90122634B41
S1130AB098472A68516D01230B435365B4E7624894
S1130AC0554B984761484B490422614B9847ABE723
S1130AD06048514B98476048474904225C4B98470B
S1130AE0A2E75E484C4B98478023DB0502935C4B9E
S1130AF00393029B5B0F5B075A4A13430293029BC7
S1130B00E022120613430293039B5B0F5B0701224F
S1130B10134303933B4D281C02A90022524B9847D0
S1130B202A68536D802109030B4353657CE74F48C2
S1130B30394B98478023DB050293494B0393029B6F
S1130B405B0F5B074A4A134302932E4D281C02A9EC
S1130B500122454B98472A68516D10230B43536576
S1130B6062E744482C4B98473E4822490822424BAE
S1130B70984759E74148284B98473D481E49082261
S1130B803D4B984750E7C046492700001400002019
S1130B9003002A0003002B00D4000020500B002087
S1130BA0550400004C0B002029040000480B0020D1
S1130BB000140042091A000078000020112C0000E3
S1130BC07D19000000E100E03D0E0000510E000020
S1130BD02D0F0000A5030000F90C0000050D000016
S1130BE0390D00009D07000031080000E00A0020D4
S1130BF01D010000BC000020C400002019270000D3
S1130C00FFFFFF1FD0000020001C0042291000003D
S1130C1019130000A8490000C92B0000110F00009F
S1130C20044C0000DD2B0000E8460000084C0000E6
S1130C30FF070088FFFF00F800005A04311300008A
S1130C40484C000000006904884C00005A0400006D
S1130C506D040000CC4C000069040000144D000039
S1130C60FFFFFF9FA50000106D130000584D00000A
S1130C70960000109C4D0000D9040000E84D0000CF
S1130C80F0B5474680B480000D4BC7583B68DE6A18
S1130C907B6B1E40BB6B1E4000240A4B98464346A8
S1130CA0E5582E4205D03B195B68381C98473B68D1
S1130CB0DD620434302CF2D104BC9046F0BDC04651
S1130CC0200B0020384E000008B50020014B984747
S1130CD008BDC046810C000008B50120014B9847AF
S1130CE008BDC046810C000008B50220014B98479E
S1130CF008BDC046810C000000238360036041608E
S1130D000020704708600A4B1A69002A02D1196151
S1130D1004E01A1C9368002BFBD19160054B1B68FF
S1130D20DB0503D480225200024B1A600020704776
S1130D300000002000E100E008B5012908D1007896
S1130D400F31094B98478423DB055861002309E0E0
S1130D501723002906D10078034B98478423DB0529
S1130D6058610023181C08BD110E000008B5031CAF
S1130D70012904D100780F31074B984705E0002082
S1130D80002908D11878044B9847044B9B681840F5
S1130D90431E9841C0B208BD110E0000000000209F
S1130DA008B5012904D100780F31084B984705E0B4
S1130DB01723002907D10078044B9847044AD368C5
S1130DC01843D0600023181C08BDC046110E000053
S1130DD00000002010B50C4B1C698421C9058A69E8
S1130DE0986802439A60094B8B61002C05D02068F7
S1130DF063689847A468002CF9D1034BD9689A68B2
S1130E008A439A6010BDC04600000020FF0FFF0F08
S1130E10081801238340181C7047C0460649CB6953
S1130E2001221343CB618423DB051A70191C0B7850
S1130E301342FCD17047C0460008004001230370F0
S1130E40002343708370C370037143717047C046BD
S1130E5070B582B0061C0D1C284B9847284B1B68A4
S1130E60DA0744D402E01A4210D100E00024244BF3
S1130E7019680122A2400A431A601A79013A1A71C8
S1130E80204B98471420FF2C06D134E05B08013432
S1130E90E4B20C2CE7D126E034706B78022B0AD034
S1130EA001A9EB780B700634E4B2201C164B98476A
S1130EB0201C164B984728798003AA787F2111407B
S1130EC001436A79D20311436B781B02C02292005A
S1130ED0134019432B789B02C022120113400B4389
S1130EE07360002007E0074B9847142003E05B0879
S1130EF001240122B7E702B070BDC0464D0F0000C7
S1130F00000000208D0F00001D260000B525000004
S1130F108423DB05D9680278103201239340181C1E
S1130F200840431E9841C0B27047C046037801335D
S1130F301F2213408422D205203189008B5003786C
S1130F40416808339B009950002070470C4B1B6884
S1130F50002B10D1EFF31083002B09D172B6BFF32D
S1130F605F8F0022074B1A700132074B1A7002E0A0
S1130F700022054B1A70024A13680133136070474C
S1130F80200100201400002024010020084B1A68CE
S1130F90013A1A601B68002B09D1064B1B78002B01
S1130FA005D00122044B1A70BFF35F8F62B67047FD
S1130FB0200100202401002014000020F0B583B09B
S1130FC001AC012565700027A77025700F20211C36
S1130FD0064EB047802212028223DB059A612770F5
S1130FE065701C20211CB04703B0F0BD151500002E
S1130FF003680A4A934206D1094A136980214900C9
S11310000B43136108E0074A934205D1044A13696C
S1131010802189000B4313617047C046001C0042C5
S1131020000800400020004238B50C1C151C01606B
S1131030A24B9847A24B00221A702A781A70A14B2F
S11310409C423DD11A209E499F4B98471A209F4BA2
S113105098479C4B996902220A439A619C4A12045C
S1131060120C802189030A4384215A50994A12049C
S1131070120C80204003024304315A50964909045B
S1131080090C0143A022995094490904090C014315
S113109010329950924A1204120C0243AC215A5055
S11310A0904A1204120C90490A43C0215A508F4AA4
S11310B01204120C802109030A43F0215A5040E023
S11310C08B4B9C4200D0F3E01B207D497E4B98471C
S11310D01B207E4B9847864B996902220A439A61EA
S11310E0844A1204120C802189030A4384215A5031
S11310F0814A1204120C80204003024304315A50E6
S11311007E490904090C0143A02299507C49090431
S1131110090C0143103299507A4A1204120C02430A
S1131120AC215A50784A1204120C6F490A43C02168
S11311305A50764A1204120C802109030A43F02102
S11311405A500023BC22A3500C32A350704BE361CD
S1131150704BE3606B78002B03D0A26840231343E9
S1131160A3606369AA7813436361EB78002B04D00E
S1131170A3698022D2011343A3612B79002B04D0ED
S1131180A369802292011343A3616B79002B04D0DD
S1131190A369802252011343A361AB79002B03D1CD
S11311A0A26940331343A361EB79002B03D0A269F6
S11311B010231343A3612B7A002B03D0A2690823C5
S11311C01343A3616B7A1B04F02212031340012220
S11311D0134323626A7B2B7B13436A8912041343F0
S11311E0A362AB7B1B02FE22D2011340191CEA7BD3
S11311F07F231A400B1C1343A3646B7C9B000C21BC
S113120019402A7C1201302313400B438022A3503F
S1131210AB7C002B03D0A15802230B43A350EB7CDF
S1131220002B04D08022A15801230B43A350902308
S11312306A69E2502B7E002B05D0A022A35880219E
S113124009060B43A350A02022586B7E1B06FE21E7
S1131250C9050B4013432350AB7E002B05D0B022AD
S1131260A358802109060B43A350B0202258EB7EDB
S11312701B06FE21C9050B40134323502B7F002B73
S113128005D0C022A3588021C9050B43A350F020E8
S113129022586B7F1B06FC2189050B401343235006
S11312A00323E365043BE022A3500432A35004E08B
S11312B0A26902231343A36143E738BDF10F000081
S11312C02C0B0020001C00421D260000B525000048
S11312D0A8050020A8040020A80900202801002057
S11312E028080020A8060020000004046809002043
S11312F000200042280500202804002028020020A5
S113130028030020280700202806002028090020A0
S1131310030A0506330A05000268936901218B4319
S11313209361016801228B691A42FCD17047C0465F
S113133010B503680948834205D109689200084B37
S1131340D150002008E01720064CA34204D10968BC
S11313509200054BD150002010BDC046001C004235
S1131360A8050020002000422805002010B50368CD
S11313700C48834208D108680B4BD200D05049680E
S11313809A18516000200BE01720084CA34207D1A3
S11313900868074BD200D05049689A185160002061
S11313A010BDC046001C0042A804002000200042DA
S11313B02804002010B503680D4CA34209D1120182
S11313C00C4B9A18081C111C10220B4B9847002038
S11313D00CE01720094CA34208D11201084B9A18BB
S11313E0081C111C1022044B9847002010BDC04655
S11313F0001C004228080020AD2A00000020004202
S11314002807002010B503680D4CA34209D112012E
S11314100C4B9A18081C111C10220B4B98470020E7
S11314200CE01720094CA34208D11201084B9A186A
S1131430081C111C1022044B9847002010BDC04604
S1131440001C0042A8090020AD2A00000020004230
S11314502802002010B503680D4CA34209D11201E3
S11314600C4B9A18081C111C10220B4B9847002097
S11314700CE01720094CA34208D11201084B9A181A
S1131480081C111C1022044B9847002010BDC046B4
S1131490001C004228010020AD2A00000020004268
S11314A02803002030B503681648834212D1086827
S11314B0154B1201D05048689B1858600023124DF8
S11314C0C818047A9818281804720133082BF7D125
S11314D0002015E017200D4CA34211D108680C4BD5
S11314E01201D05048689B1858600023084DC81852
S11314F0047A9818281804720133082BF7D10020B5
S113150030BDC046001C0042A80600200020004256
S11315102806002000B583B001AB80221A700A7837
S11315205A704A789A708A78DA70191C014B984775
S113153003B000BD1927000010B5490840248142BA
S11315400CD30023091A01339BB28842FAD9013B18
S11315509BB24024FF2B01D813800024201C10BD13
S1131560F0B55F4656464D464446F0B489B01C1C5F
S113157012AB1B78061C5E4340258E4200D9C7E09F
S1131580251C07920C1C021C002D51D1181C002193
S11315900023634DA8478346261C0027002300240C
S11315A002930394002200233F2020218C461F39FC
S11315B00096019720246442041903D40D1CA5400D
S11315C0A84604E06446241A0D1CE540A8460C1CF9
S11315D08440A146141C1D1CA4185D41221C2B1C14
S11315E05E4647463E4203D00E1C2643321C2B1C4B
S11315F0019C9C4210D802D1009C94420CD8009CBF
S1131600019D121BAB414D46029E039F35433C1C7A
S113161046463443029503940138CBD20022012379
S113162002980399121A8B41110C1B0419436CE0A4
S11316300021012D69D1610F0F1CE1008846181C9F
S113164000210023364CA047041C0D1C00239C469B
S113165020339B46012663460593B9466B461B7DA2
S1131660069300239C46002000213F22009401950C
S113167020235B42D31803D4341C9C40231C04E075
S11316805B469B1A341CDC40231C371C9740041C0B
S11316900D1C24184D41201C291C02900391444622
S11316A03C40A2464C4623405446234305D0029B6B
S11316B0039C1D1C3543281C211C019B8B420AD80A
S11316C002D1009B834206D8009B019CC01AA14111
S11316D063463B439C46013ACAD2009C019D624644
S11316E00599531ADB080F4A934208D9069A013226
S11316F0D2B206920A1C01320592082AAED14025C4
S1131700069A082A04D051031943079B198000251F
S1131710281C09B03CBC90469946A246AB46F0BD95
S11317200D2A0000FF1F000010B582B0041C0E4BF0
S11317301B78002B01D000290DD001A90C701220B8
S11317400A4B984712200A4B9847074B5C700122BA
S11317501A70002006E0044B5B78834201D01D2000
S113176000E0002002B010BDA80A00201D260000E1
S1131770B5250000444B984233D006D8434B9842D9
S11317800DD0434B98421BD06FE0424B98424AD055
S1131790414B984258D0414B984266D132E00129DE
S11317A006D0002963D0022906D0032906D001E01F
S11317B03B4867E0002065E03A4863E03A4861E06E
S11317C0012906D0002954D0022906D0032906D0C5
S11317D001E0364856E0002054E0354852E03548F0
S11317E050E0012906D0002945D0022906D003295A
S11317F006D001E0304845E0002043E02F4841E0B6
S11318002F483FE0012906D0002936D0022906D00E
S1131810032906D001E02B4834E0002032E02A48B6
S113182030E02A482EE0012906D0002927D00229D9
S113183006D0032906D001E0254823E0002021E05A
S113184024481FE024481DE0012906D0002918D0AF
S1131850022906D0032906D001E0204812E0002026
S113186010E01F480EE01F480CE000200AE01E486C
S113187008E01E4806E01E4804E01E4802E01E4838
S113188000E01E487047C046000C004200040042BD
S113189000080042001400420018004200100042F8
S11318A00300050003000600030007000200110006
S11318B0020012000200130002000D0002000E00DC
S11318C002000F00020017000200180002001900B5
S11318D00300290003002A0003002B000300230057
S11318E00300200003002100030004000200100094
S11318F002000C000200160003002800030022006E
S113190030B587B00C4B6A4632CB32C232CB32C2CE
S1131910009B834206D001239A00694652588242B2
S113192003D100E00023D8B203E00133062BF3D146
S1131930002007B030BDC046684E00007047C04666
S1131940F0B50A4B1B78002B0CD1094F094E0A4DF8
S11319500024DE515A1914600433182BF9D10122E2
S1131960024B1A708000024BC150F0BDAA0A00203D
S1131970AC0A00203D190000300B002010B582B0E5
S1131980041C684605490622054B9847201C054B54
S113199098476B46185602B010BDC046804E0000F2
S11319A0AD2A00000119000008B5024B1B68002095
S11319B0984708BDAC0A002008B5024B5B680120BB
S11319C0984708BDAC0A002008B5024B9B6802206A
S11319D0984708BDAC0A002008B5024BDB68032019
S11319E0984708BDAC0A002008B5024B1B690420C7
S11319F0984708BDAC0A002008B5024B5B69052076
S1131A00984708BDAC0A0020F0B55F4656464D46DF
S1131A104446F0B491B0051C0C1C161C2960081C2B
S1131A20CE4B984722680523D20700D58EE1226861
S1131A301733920700D589E1C949CA69471C1B3B82
S1131A40BB401343CB610FA93527F35D0B701330F3
S1131A50C3B20293181CC34B98470298C24B9847D1
S1131A60F05D0021C14B9847F37A6B712C23F35C32
S1131A70AB712D23F35CEB71F37E2B722423F35CA7
S1131A806B722B689846181CB44B9847133000228D
S1131A900E2306A98C4663441A80338A9A4680230F
S1131AA0DB019A4519D004D880239B019A450AD0BA
S1131AB02DE1C023DB019A450AD080231B029A45FD
S1131AC000D129E123E1102399460F3B079327E135
S1131AD008239946073B079322E133689B46F36842
S1131AE0029373690393337E04932E23F35C05936B
S1131AF072680692002A15D080235B059A4236D17B
S1131B002F23F35C002B36D1B36A9946C0B2984BAD
S1131B109847011C48460E2206AB9C466244954BEE
S1131B20984725E008239946002307932F23F35C65
S1131B30002B0BD04B460093B06A316B0E2206ABE0
S1131B409C466244079B8C4FB84711E0B36A1F1C44
S1131B50C0B2874B9847011C4B460093381C0E2299
S1131B6006AB9C466244079B834FB84700E00020C5
S1131B70031E00D0EAE0737E002B02D0B37E4246FF
S1131B8093732A68069FD369002BFCD10E3306AAEF
S1131B90944663441B8842469381029B5A461343EE
S1131BA0039A13433B4352461343049A12021343CA
S1131BB0059A57071F432F23F35C002B01D10433ED
S1131BC01F432423F35C5902727E93020B432622A3
S1131BD0B25C120213432C22B25C520413432D2232
S1131BE0B25C12041343F17A19433389FF2B04D0F6
S1131BF0802252041743194305E0F37E002B02D0E0
S1131C008023DB041F4343469A68308C0723134028
S1131C100343728C134342469360F369002B02D052
S1131C20564A17401F433423F35C002B03D1544B13
S1131C309B789B0701D580231F432A68D369002B17
S1131C40FCD1434659602A68D369002BFCD1434632
S1131C501F601A68F0231B051340E022D20493424C
S1131C6042D043469B68072293434246936092685E
S1131C702523F35C07210B4013434246936033E072
S1131C80F9B2BB000AAA9858002802D1201C3D4B87
S1131C909847431C05D03070000CC0B2311C3A4B3D
S1131CA098470137042FEBD10023EB602B616B6164
S1131CB0AB61EB612B62AB626B620022EB85AB859F
S1131CC03033EA540133EA540133EA540133EA5419
S1131CD02868224B9847041C2C492D4B9847A40094
S1131CE02C4BE550002331E00EAB80221A70002209
S1131CF05A70DA709A70B36B0A93F36B0B93336C6C
S1131D000C93736C02930D9300270EAEB8E7102367
S1131D1099460023079303E003239946002307937E
S1131D2033689B46F368029373690393337E049389
S1131D302E23F35C059372680692002A00D1F5E61F
S1131D4080235B059A4200D1DAE614E7181C11B02F
S1131D503CBC90469946A246AB46F0BD0119000032
S1131D60000800401D260000B525000029170000CA
S1131D70412600003915000061150000FFFFFFF047
S1131D80002000417517000019270000351E0000CF
S1131D9041190000300B002010B50368C4791C22DF
S1131DA0002C0DD0C08D80B2173A002808D1DA6912
S1131DB0002AFCD1198502211A7E0A42FCD0002295
S1131DC0101C10BD10B5046882791C23002A2FD082
S1131DD0828D92B2173B002A2AD1227E520727D540
S1131DE0E369002BFCD1638BDBB25A061DD09A0742
S1131DF003D50223638318331AE05A0703D5042357
S1131E0063831A3314E0DA0703D50123638312339F
S1131E100EE0DA0603D510236383323308E09B0611
S1131E2003D520236383213302E0238D0B80002319
S1131E30181C10BDF8B58000614BC5582C68E369C7
S1131E40002BFCD1237EA67D1E403123EB5C302287
S1131E50AF5C1F40F30722D5EB8D9BB2002B1CD047
S1131E60AA6A1378DBB2511CA9626979012901D0ED
S1131E709BB204E0517809020B430232AA62DB05EB
S1131E80DB0D2385EB8D013B9BB2EB85002B06D14B
S1131E90013323750133A37501E001232375B307CF
S1131EA009D50223237500223133EA54FB0702D5F6
S1131EB0281CEB689847730763D5AB8D9BB2002B46
S1131EC05DD0638BDBB21A0702D47F22134001E09A
S1131ED0772213405A0601D540229343002B2CD07D
S1131EE09A0705D51A223223EA54303B63831EE055
S1131EF05A0705D51E223223EA542E3B638316E08B
S1131F00DA0705D513223223EA54313B63830EE00A
S1131F10DA0605D542223223EA54223B638306E0E3
S1131F209B0604D541223223EA54123B63837B0788
S1131F3027D5281C6B69984723E0238DDB05DB0D2F
S1131F40DAB2696A0A706A6A511C6962697901299C
S1131F5004D11B0A53706B6A01336B62AB8D013B76
S1131F609BB2AB85002B0CD10433237500222E3396
S1131F70EA54BB0705D5281C2B69984701E00423C4
S1131F802375F30607D5102323752376FB0602D5A4
S1131F90281CEB699847B30607D5202323752376BD
S1131FA03B0702D5281CAB699847330707D508239C
S1131FB023752376BB0602D52B6A281C9847F8BDE7
S1131FC0300B002008B5072803D880000F4B1B589E
S1131FD09F46002018E00E4B586815E00D4B5B7DC2
S1131FE00F21194001310C480C4B98470CE0084B69
S1131FF0986809E0074B1B7F00209B0704D5044B1E
S1132000186801E08020000208BDC046884E000028
S1132010C40A002000100040006CDC02E928000023
S1132020F0B557464E464546E0B41C4EB3699C464F
S1132030417805780779C3789946447983780120F3
S113204003409B009A4604229046624643469A43C4
S1132050131C52461A43131C0140C900082293431F
S11320600B434A460240920140218B4313430740ED
S1132070FF01802293433B43793A15402D02084FD8
S11320803B402B4304402003064C1C400443B461F2
S11320901CBC90469946A246F0BDC04600140040C0
S11320A0FFF8FFFFFFEFFFFFF0B55F4656464D46D2
S11320B04446F0B483B0304FBB8A9C4645780378DD
S11320C05A425A41904683789B46C378467A027AAC
S11320D00092847A294A41689160C27A92009246B9
S11320E0827B52009146524649460A439146427BBE
S11320F092464A4651460A436946CA71CA79BA7534
S1132100007BF875012042469200904604229146D5
S1132110624649468A439446424661460A43944687
S11321200340DB0008229046624641468A4313433B
S1132130594601400901102293430B43009A02407F
S1132140920140218B4313430640F60180229343BE
S11321503343793A15402D02094E33402B43044052
S11321602003084C1C400443BC8203B03CBC904692
S11321709946A246AB46F0BD00140040C40A0020B4
S1132180FFF8FFFFFFEFFFFFF8B5041CC168037DF4
S1132190012B05D1038A081C191C284B9847011CE4
S11321A0A3681801254B98470F2606400009637859
S11321B09A012378DB011343DBB2214A13773104FC
S11321C0431E1B051B0D0B431362151C2C210422FB
S11321D06B5C1342FCD1E178C900A3781B0319435B
S11321E023799B001943A37C03273B401943258A89
S11321F02D04144A2B1C13401943E37C1B02E022D8
S1132200D20013401943227D1201302313400B43A3
S11322100B4A5362637D1F402823D754151C2C217D
S113222008226B5C1342FCD100013618E3685E435C
S1132230637D0433DE40044B1E60F8BDE9280000D2
S1132240001000400000FF07C40A0020072803D83C
S11322508000184B1B589F46172029E0164A117D11
S113226002230B431375002022E0144A91690223D0
S11322700B43936100201BE00F4A118A02230B4396
S11322801382002014E00D4A918A02230B439382A7
S113229000200DE0084A117F02230B431377101C22
S11322A02C210222435C1342FCD1002000E00020D8
S11322B07047C046A84E00000010004000140040C3
S11322C0F0B5474680B490B003224D4B9A604D4917
S11322D04B681B329343183A13434B600CA80023FA
S11322E0037080221202426083700122C2708372E2
S11322F0C372037343738373042141704372027284
S1132300414B98470520414B984741490122CB68EE
S11323101A42FCD00AA80123437083700022C270C1
S113232003710633037042713A4B98470420374BCC
S11323309847394B197D80220A431A7502225A752F
S11323401A1C9369002BFCD1344B984701AC01262D
S1132350666000256570657205232370267201206E
S1132360211C2F4B9846984701202E4FB847657083
S113237025726572042323701C3363600220211CC0
S1132380C0470220B84766606570257265720723EE
S113239023700820211CC0470820B84704A8857072
S11323A0C5700571204B836006824575C5748574BC
S11323B005700123437005751C4BC3601C4B984783
S11323C00720124B9847144830210322435C1340E2
S11323D0032BFBD1023B174A137101A94B60002266
S11323E04A704A7207320A700B7200200C4B9847ED
S11323F000200C4B984710B004BC9046F0BDC0467A
S11324000018004000400041A92000004D220000B7
S11324100014004021200000001000403924000076
S11324205D24000009250000006CDC02FF7F000031
S11324308921000000080040064A516980230B43AB
S113244053610122044B1A70191C0B781342FCD1FE
S11324507047C04600080040001C004070B5041CD2
S11324600D784B78002B02D08023DB001D434B7A80
S1132470002B02D080231B011D434A68012A17D96F
S1132480531E1A420FD1022A06D90223002001301A
S11324905B009A42FBD800E0002080235B011D43CF
S11324A00004054304E0120480239B001A431543EF
S11324B00B7A002B02D080239B011D430426A640E7
S11324C00D490E4A4B6813401E42FBD10C4B9847F2
S11324D0A400094B9C466444206A80235B00184096
S11324E0284320626146054A4B6813401E42FBD1D3
S11324F0044B984770BDC046001C0040FC07000018
S11325004D0F00008D0F000010B5041C0422824002
S113251009480A4943680B401A42FBD1084B9847C3
S1132520A400054B9C466444236A80225200134352
S11325302362044B984710BD001C0040FC070000B8
S11325404D0F00008D0F0000F8B5041C04228240DA
S11325501248134943680B401A42FBD1114B984768
S11325600E4F0834A400E359072018400E4B984737
S1132570061CE559ED04ED0FE459240C0B4B984768
S1132580002D07D1012C07D9301C211C084B98477A
S1132590061C01E00134E640301CF8BD001C00407C
S11325A0FC0700004D0F0000C51F00008D0F000048
S11325B0E928000010B5041C084B9847A400084BF8
S11325C0E0188022815840230B4383508021403AF5
S11325D043581A42FCD0034B984710BD4D0F0000DE
S11325E0001C00408D0F000010B5041C084B9847D8
S11325F0A400084BE0188022835840218B43835069
S11326004031403A43581A42FCD1034B984710BD1D
S11326104D0F0000001C00408D0F000038B5041C55
S11326200D1C054B98472B780F2213402034A4002F
S1132630024AA35038BDC046E9250000001C0040F2
S113264010B5041C064B98472034A400054BE358EE
S11326500F241C40044B9847201C044B984710BD82
S11326604D0F0000001C00408D0F000049250000A4
S113267030B5D378002B1ED11478802C04D02406D6
S113268080235B021C4300E0002453780225AB4303
S11326900AD19378002B03D180239B021C4302E0D0
S11326A0C023DB021C4341605378013B012B12D849
S11326B0184B1C400FE041600B041B0CA024E405E4
S11326C0234383620B0CD024240623438362D378F0
S11326D0002B18D01CE00B041B0CA025ED052B438C
S11326E0234383620B0CD0252D062B4323438362A3
S11326F0D378002B0CD1630305D59378012B01D13A
S1132700816100E041615378013B012B00D8816075
S113271030BDC046FFFFFBFF08B5031C0A1CC109FE
S11327200020002905D15809C0018221C9058C4621
S113273060441F210B401E399940014B984708BD46
S1132740712600007047C04608B5054B9847054BF5
S11327509847054B9847054B9847054B984708BD44
S1132760C1220000BD0F00001D0E0000452700001F
S113277045270000FEE7C04610B51B4B1B4A9A4292
S113278003D01B4B184A9A4204D31A4B1A4A9A4252
S113279010D31EE0194A164B03339B1A9B080133CE
S11327A09B000022104811498C58845004329A42EC
S11327B0FAD1EAE7124A0F4B03339B1A9B08013301
S11327C09B0000220C4800211418216004329A4214
S11327D0FAD10C4AFF210C4B8B4393600B4B984767
S11327E00B4B9847FEE7C04600000020AC500000A9
S11327F080000020580B00208000002004000020EE
S11328008400002000ED00E000000000612A0000C8
S113281059080000F0B5474680B40C1C90460028C7
S113282010D1002A0ADD8F18094E0A4D3068211C88
S11328302B6898470134BC42F8D101E00023984644
S1132840404601E00120404204BC9046F0BDC04631
S1132850500B0020480B0020F0B5474680B40138E7
S1132860022815D8002A10D0151C0E1C00240C4B6D
S113287098460C4F43461868315D3B6898470028DA
S113288009DB0134A542F5D100E00024201C04E05A
S11328900120404201E00120404204BC9046F0BDCA
S11328A0500B00204C0B0020031C064A1268002A1F
S11328B002D10549034A1160024A1068C318136023
S11328C07047C046D00A0020582B00200120404207
S11328D07047C04680239B014B6000207047C04670
S11328E00120704700207047002243088B4274D3B4
S11328F003098B425FD3030A8B4244D3030B8B42FD
S113290028D3030C8B420DD3FF22090212BA030C05
S11329108B4202D31212090265D0030B8B4219D3E6
S113292000E0090AC30B8B4201D3CB03C01A524106
S1132930830B8B4201D38B03C01A5241430B8B424E
S113294001D34B03C01A5241030B8B4201D30B0337
S1132950C01A5241C30A8B4201D3CB02C01A52415E
S1132960830A8B4201D38B02C01A5241430A8B4221
S113297001D34B02C01A5241030A8B4201D30B020A
S1132980C01A5241CDD2C3098B4201D3CB01C01A24
S1132990524183098B4201D38B01C01A524143092E
S11329A08B4201D34B01C01A524103098B4201D31C
S11329B00B01C01A5241C3088B4201D3CB00C01A89
S11329C0524183088B4201D38B00C01A5241430801
S11329D08B4201D34B00C01A5241411A00D2014626
S11329E0524110467047FFE701B5002000F00CF893
S11329F002BDC0460029F7D003B5FFF775FF0EBC32
S1132A004243891A1847C0467047C046F0B54F463E
S1132A10464605042D0C2C1CC0B41704160C3F0CA0
S1132A209946030C7C4375435F4373437D19260C1D
S1132A30AD199C46AF4203D980235B029846C44437
S1132A404B465143434324042E0C240C2D0466446A
S1132A502C1959188919201C0CBC90469946F0BDB4
S1132A600E4B70B500251E1C0D4CE41AA410A54293
S1132A7004D0AB00F35898470135F8E702F006FBA1
S1132A80084B00251E1C084CE41AA410A54204D0CF
S1132A90AB00F35898470135F8E770BD9850000033
S1132AA098500000985000009C500000002310B57E
S1132AB0934203D0CC5CC4540133F9E710BD031C2A
S1132AC08218934202D019700133FAE7704700006C
S1132AD00FB40B4B13B51C68002C05D0A369002B55
S1132AE002D1201C00F0FCFA05AB201CA168049A5A
S1132AF0019300F0CBFC16BC08BC04B01847C046D8
S1132B007800002070B5051C0E1C002804D08369D1
S1132B10002B01D100F0E4FAAC68A3891B0702D5AD
S1132B202369002B19D1281C211C00F059F9002815
S1132B3013D00120404245E03178002B1BDAA26912
S1132B40934211DA221C281C00F0F2F801304242B0
S1132B504241D0B20028ECD10136A3683278013B5F
S1132B60A360002AE8D10CE023681970236819785F
S1132B700A2903D1E6E72368197023680133236027
S1132B80EAE7002B17DAA269934208DB0A232268DA
S1132B901370236819780A2911D1281C01E0281C14
S1132BA00A21221C00F0C4F8013042424241D0B252
S1132BB0002806D0BDE70A23226813702368013376
S1132BC023600A2070BD000008B5034B011C18687F
S1132BD0FFF798FF08BDC046780000200FB40B4BE8
S1132BE013B51C68002C05D0A369002B02D1201C4E
S1132BF000F076FA05AB201C6168049A019301F099
S1132C0053F816BC08BC04B01847C046780000202E
S1132C1008B54A424A4180235200DB0000F002F822
S1132C2008BD0000F7B51E1C3C4B041C1D680F1C9E
S1132C300192002D05D0AB69002B02D1281C00F0B5
S1132C404FFA374B9C4201D16C6808E0354B9C42EB
S1132C5001D1AC6803E0344B9C4200D1EC68019B89
S1132C60022B58D8002E56DB281C211C00F0B6F984
S1132C7000236360A361A3891B0603D5281C216973
S1132C8000F03EFB8322A3899343A381019B022B83
S1132C9013D0002F25D1002E01D18026F600301C40
S1132CA000F024FB071E18D18020C00000F01EFB9A
S1132CB0071E10D10120404200E000200222A38917
S1132CC01343A3810023A360231C473323602361A0
S1132CD00123636121E08026F6008022A389134347
S1132CE0A381019B012B05D1A389019A1A43734245
S1132CF0A281A3610D4B0020AB62A28927602761EA
S1132D006661130709D503231A40534253415B42BA
S1132D101E40A66001E001204042FEBD7800002074
S1132D20D04E0000F04E0000104F00005D30000057
S1132D3070B5051C0E1C141C002804D08369002BDC
S1132D4001D100F0CDF9234B9C4201D16C6808E01D
S1132D50214B9C4201D1AC6803E0204B9C4200D142
S1132D60EC68A369A360A3891B070AD52369002B18
S1132D7007D023682269F6B2981A636998420FDB78
S1132D8008E0281C211C00F02BF80028F1D00120B9
S1132D9040421DE0281C211C00F020F90028F6D137
S1132DA0A3680130013BA36023685A1C22601E7093
S1132DB06369984205D0A389301CDB0708D50A2E25
S1132DC006D1281C211C00F009F90028DFD1301C91
S1132DD070BDC046D04E0000F04E0000104F000001
S1132DE0354B70B51D68061C0C1C002D05D0AB6955
S1132DF0002B02D1281C00F073F9304B9C4201D106
S1132E006C6808E02E4B9C4201D1AC6803E02D4B6A
S1132E109C4200D1EC68A3899AB2110723D4D1064D
S1132E2007D409220120326037321343A381404280
S1132E3040E0530713D5616B002908D0231C4433A9
S1132E40994202D0301C00F05BFA00236363242211
S1132E50A3899343A3810023636023692360082229
S1132E60A3891343A3812369002B0BD1A023A28937
S1132E709B00134080229200934203D0301C211CFB
S1132E8000F0DCF90123A289134005D00023A360DC
S1132E9063695B42A36103E0910700D46369A360A3
S1132EA000202369834205D1130603D540231A4326
S1132EB0A281013870BDC04678000020D04E0000C9
S1132EC0F04E0000104F0000F7B58A89051C0C1C59
S1132ED013075ED44B68002B02DC0B6C002B1ADD4D
S1132EE0E76A002F17D000232E682B6080235B0134
S1132EF01A4001D0626D15E0281C216A0123B847ED
S1132F00021C431C0ED12B68002B0BD01D2B01D0AF
S1132F10162B02D12E6000205EE04021A3890B43D2
S1132F20A38159E0A3895B0706D56368D21A636B52
S1132F30002B01D0236CD21A0023281C216AE76AD3
S1132F40B847A389421C06D12A68002A03D01D2A47
S1132F5001D0162A19D10022626022692260DB04A2
S1132F6005D5431C02D12B68002B00D16065616B31
S1132F702E600029CFD0231C4433994202D0281C50
S1132F8000F0BEF90020606326E040221343A381D1
S1132F9022E00F69002FBED00B680F60DB1B01938A
S1132FA00023920700D14B69A360019B002BB2DD83
S1132FB0281C216A3A1C019BA66AB047002806DC3B
S1132FC040220120A38940421343A38104E0019BD2
S1132FD03F181B1A0193E8E7FEBD000038B50B69E2
S1132FE0051C0C1C002B01D100201CE0002804D07F
S1132FF08369002B01D100F073F80B4B9C4201D183
S11330006C6808E0094B9C4201D1AC6803E0084BB2
S11330109C4200D1EC680C22A35E002BE4D0281C57
S1133020211CFFF751FF38BDD04E0000F04E0000C8
S1133030104F000008B5011E05D1054B054918685D
S113304000F0DAF803E0044B1868FFF7C7FF08BD87
S1133050CC4E0000DD2F00007800002008B50249A6
S113306000F0CAF808BDC046DD2F0000002310B5EB
S1133070041C03604360836081814366C2810361F1
S113308043618361191C08225C30FFF718FD054B6E
S113309024626362044BA362044BE362044B236324
S11330A010BDC0466D41000095410000CD410000B7
S11330B0F941000070B568254B1E5D430E1C291CA8
S11330C0743100F063F9041E08D000212A1C016049
S11330D046600C30A0606832FFF7F1FC201C70BD24
S11330E0836913B5002B28D18364C3640365134B30
S11330F0134A1B6882620193984201D101238361C0
S1133100041C00F01FF86060201C00F01BF8A06095
S1133110201C00F017F80421E06000226068FFF72B
S1133120A5FFA06809210122FFF7A0FFE068122192
S11331300222FFF79BFF0123A36113BDCC4E0000C5
S11331405D300000F8B51D4B061C1D68AB69002BF3
S113315002D1281CFFF7C4FF4835AC686B68013BFB
S113316005D40C22A75E002F10D06834F7E72B6833
S1133170002B06D1301C0421FFF79CFF2860002897
S113318001D02D68E9E70C23336016E00123201CED
S11331905B42E3810233A38167662760A7606760AF
S11331A027616761A7615C30391C0822FFF787FC3F
S11331B0201C6763A763A764E764F8BDCC4E0000D6
S11331C0F7B54830041C00260191002C12D0A568E4
S11331D06768013F0CD4AB89012B07D90E22AB5E83
S11331E0013303D0281C019B984706436835F0E758
S11331F02468EAE7301CFEBDF7B5041C071C002652
S113320001914834002C16D06368A5680093009B94
S1133210013B00930DD4AB89012B08D90E22AB5E80
S1133220013304D0381C291C019B98470643683598
S1133230EDE72468E6E7301CFEBD0000F0B58B899D
S113324091B09B0706D50B1C47330B600B61012320
S11332504B6145E00C1C0E23C95E061C002904DAF0
S11332608023A5891D4010D10CE001AA01F0B2F918
S11332700028F5DBF023029D1B021D40194BED18BD
S11332806B425D418027FF0001E000254027301C90
S1133290391C00F07BF800280CD1A3899A051FD4AF
S11332A002221343A381231C473323602361012398
S11332B0636115E080220C4BB362A3892060134341
S11332C0A38120616761002D0AD00E23E15E301CCA
S11332D001F092F9002803D00122A3891343A381AA
S11332E011B0F0BD00E0FFFF5D30000008B5034BF6
S11332F0011C186800F04AF808BDC0467800002098
S113330030B500293ED004390B68002B00DAC91807
S11333101D4A1368141C002B02D14B60116031E06C
S113332099420DD208680A189A4203D11368C31847
S11333300B6053684B60216024E08A4203D8131C5D
S11333405A68002AF9D11D685C198C420BD10968AE
S1133350691858181960904214D1106852680918F5
S113336019605A600EE08C4202D90C23036009E014
S113337008680C18944203D1146852680019086054
S11333804A60596030BDC046D80A0020032370B596
S1133390CC1C9C430834051C0C2C01D20C2405E0E5
S11333A0002C03DA0C2300202B6042E08C42F9D37A
S11333B0204A1368101C191C002913D00A68121B18
S11333C00DD40B2A02D90A608B181FE08B4202D15C
S11333D05A6802601BE04A685A600B1C17E00B1C19
S11333E04968E9E7144E3368002B03D1281C00F028
S11333F077FE3060281C211C00F072FE031C421C66
S1133400D0D00322C61C964386420AD11C60181CE5
S113341007210B301A1D8843821A0AD05142995051
S113342007E0311A281C00F05BFE431CBAD0331CA1
S1133430ECE770BDD80A0020D40A0020936810B5C8
S1133440013B9360002B05DA9469A34208DBCBB2FD
S11334500A2B05D01368581C10601970C8B201E01B
S1133460FFF766FC10BDF8B5061C0F1C141CD5181C
S1133470AC4208D02178301C3A1CFFF7DFFF01343E
S1133480431CF5D100E00020F8BD0000F0B59FB06A
S1133490061C0F1C02920593002804D08369002B9C
S11334A001D1FFF71DFE794B9F4201D1776808E0F7
S11334B0774B9F4201D1B76803E0764B9F4200D11E
S11334C0F768BB891B070AD53B69002B07D000238B
S11334D006AD6B6120336B761033AB763DE0301C68
S11334E0391CFFF77DFC0028F1D001204042CAE0DE
S11334F0059A111D12680591002A7EDB0992013498
S113350023782E2B00D189E021786348032201F02F
S113351099F8002808D0604B0134C01A4023834036
S1133520181C2B68184328602178631C5B4806220A
S11335300293297601F086F8002800D191E0584BD7
S1133540002B00D084E00722059B07339343083304
S113355005936B69039A9B186B61029C2378002B7B
S113356004D1029BE31A049311D003E0252BF8D075
S11335700134F3E7049B301C391C029AFFF773FFF4
S1133580431C7BD06A69049B944663446B61237833
S1133590002B73D00122002352426A6002A95432E4
S11335A0521801342B60EB60AB601370AB6521786B
S11335B03C48052201F046F8002809D0394B013473
S11335C0C01A01238340181C2B6818432860EEE7B7
S11335D02B68DA0604D55322202102A81218117090
S11335E01A0704D553222B2102A81218117022782D
S11335F02A2A00D17CE7099B05E05242EA600222B4
S113360013432B607BE72278303A092A04D80A2135
S11336104B4301349B18F6E7099371E763782A2B2F
S113362009D1059B02341A1D1B680592002B0DDA83
S113363001235B420AE0002301342278303A092A4C
S113364004D80A214B4301349B18F6E707935BE740
S113365005AB0093301C291C3A1C134B00E000BF3F
S113366007E005AB0093301C291C3A1C0E4B00F0FC
S11336708BF80390039B013300D06AE7BB895B0698
S113368000D532E70B981FB0F0BDC046D04E000005
S1133690F04E0000104F0000364F00003A4F00007B
S11336A000000000304F000067340000F7B5171C1D
S11336B001930A698B6800900C1C934200DA131C76
S11336C0221C3B6043321278002A01D001333B6054
S11336D023689B0602D53B6802333B6006252368BA
S11336E01D401ED0231C43331B785A1E934122686D
S11336F092061CD53020E1184031C870211C5A1C98
S113370045310978A21840320233D1700FE0221CEF
S11337100123009801991932089EB047431C0ED02A
S11337200135E3683A689B1A9D42F0DBDAE7221C14
S1133730009801994332089DA847431C02D10120F7
S1133740404220E006232068E1683A6803400025EF
S1133750042B03D18D1AEB43DB171D40A3682269A8
S1133760934201DD9B1AED180027AF420ADA221CAE
S11337700123009801991A32089EB047431CDED0F9
S11337800137F2E70020FEBDF0B58BB006920A1CAB
S113379043320793059004920A7E0C1C109B6E2AF8
S11337A000D1A8E011D8632A22D009D8002A00D178
S11337B0B2E0582A00D0C2E045310A707C4A4FE09A
S11337C0642A1DD0692A1BD0B9E0732A00D1A7E06E
S11337D009D86F2A29D0702A00D0B0E020220968C5
S11337E00A43226037E0752A1FD0782A33D0A6E036
S11337F00E1C1A684236111D196013683370A1E05B
S113380021681A68080606D4490604D5111D1960F2
S11338100023D55E02E0111D19601568002D3BDA06
S11338202D23049A6D42137036E021681A68080645
S113383006D4490604D51568111D1960ADB202E01D
S1133840111D196015685A4B227E03930A276F2AAB
S11338501DD108271BE0221C782145321170554ADE
S113386019680392081D226818600D68100602D4B6
S1133870500600D5ADB2D30702D520231A432260E7
S11338801027002D03D1202322689A432260231C91
S1133890002243331A7002E00A27454B03936368FE
S11338A0A360002B03DB0422216891432160002DD7
S11338B002D1049E002B0ED0049E281C391CFFF755
S11338C099F8039B013E5B5C281C3370391CFFF79D
S11338D00BF8051EF1D1082F09D12368DB0706D5A3
S11338E063682269934202DC3023013E3370049BF7
S11338F09B1B23612BE009681A68080607D4490654
S113390005D5111D19601368A28A1A8004E0111DDF
S11339101960136862691A600023049E236116E02B
S11339201A68111D196016680021301C626800F0C5
S113393089FE002801D0801B6060636803E0261CB8
S113394042363270012323610023049A1370079BCB
S113395005980093211C069B09AAFFF7A7FE431CA8
S113396002D10120404221E0236905980699321CC6
S1133970079DA847431CF4D023689B0705D4099BE3
S1133980E068984212DA181C10E00025E368099AEE
S11339909B1A9D42F3DA221C0123059806991932D9
S11339A0079EB047431CDCD00135EFE70BB0F0BDF8
S11339B0414F0000524F0000F0B5B54C071CA54420
S11339C00393002386204893499305AB4A93BE236F
S11339D040000D1C019202A9AE4A5B000918CA50AE
S11339E0AD4A02A904330918CA50019B1C78002C63
S11339F000D144E1A94E33681B195A7808231340B7
S1133A0023D06B68002B10DD2B6831681A788A1874
S1133A105278120715D5499A01330292013249921C
S1133A206A682B60013A6A60EBE78621C02349008B
S1133A3002AA52185B00D358381C291C9847002846
S1133A40E2D0019E01360196CFE7019A561C252C3F
S1133A504FD14793459353782A2B02D11A3B459370
S1133A600136341C21780B1C303B092B09D8479BA9
S1133A70013401930A23019A5343303B5918479167
S1133A80F0E7874E0322301C00F0DCFD002808D04C
S1133A90801B01268640301C459B0134184301934A
S1133AA04590661C2478672C10D8652C00D384E0DC
S1133AB05B2C5AD005D8002C00D1E2E0252C18D07C
S1133AC07DE0632C5FD0642C46D078E0702C34D039
S1133AD007D86E2C5FD041D8692C70D1002346934F
S1133AE041E0752C38D0782C2DD0732C67D102236B
S1133AF047E06B68002B0EDD2B681A78A24200D0D9
S1133B00BDE001336A682B60499B013A019301339C
S1133B106A60499397E78621C023490002AA521894
S1133B205B00D358381C291C98470028E4D04898D7
S1133B30002800D09FE00138A5E0459B0193202395
S1133B40019A13434593459B01938023019A9B005B
S1133B5013434593102302E00A2300E0082346930D
S1133B6004236E2C0DDC03230BE0311C05A800F0AC
S1133B70C9FA459B061C01934023019A13434593BC
S1133B8001234B931FE0459B01934023019A134368
S1133B9045930023F5E74599CB0600D553E7039BEE
S1133BA0499AC80704D5191D03911B681A804AE76E
S1133BB0191D03911B681A6045E70523E1E70323F8
S1133BC04B93073346936B68002B04DD459B0193AD
S1133BD05B0618D51FE08621C023490002AA5218AB
S1133BE05B00D358381C291C98470028EED09EE768
S1133BF0499A0192013249926A68013A6A60002A3C
S1133C0013DD01332B602B6824491A7809688A185C
S1133C1052781207ECD44B9B022B13DC381C45A9B9
S1133C202A1C03AB00F068F81FE08621C02349007A
S1133C3002AA52185B00D358381C291C9847002844
S1133C40E1D074E7042B06DC381C45A92A1C03AB1D
S1133C5000F0B0F809E0134B002B00D1F3E6381C58
S1133C6045A92A1C03AB00E000BF012807D00228A5
S1133C7000D0E8E65BE7AB895B0604D501E0489831
S1133C8001E001204042A7239B009D44F0BDC046B3
S1133C9064FDFFFFA5440000C13F00007C0000203C
S1133CA0364F000000000000F8B5051C0C1C171C62
S1133CB01E1C002804D08369002B01D1FFF710FAE1
S1133CC00A4B9C4201D16C6808E0094B9C4201D12B
S1133CD0AC6803E0074B9C4200D1EC68281C3A1CFA
S1133CE0331C211CFFF768FEF8BDC046D04E00000F
S1133CF0F04E0000104F0000F7B5151C8A680190C3
S1133D000C1C002A06D18A69511E8A4101215242A3
S1133D100A43A2602268D20603D41A68111D1960EE
S1133D2017680026A06900281DD123680136DB0628
S1133D3003D42B681B783B7001372A686B68013207
S1133D402A60A268013B013A6B60A260002A1FD07E
S1133D50002BE7DCC0235B00E3580198291C98473B
S1133D600028DFD014E0012808D12B6862691B7891
S1133D70D35C002BD9D1002E19D009E0022807D139
S1133D802B680B4A1B781268D3185B781B07CCD5B9
S1133D9010232268134006D1E2680132E260A2696E
S1133DA0002A00D03B70002023699E192661FEBDC5
S1133DB07C000020F0B50C1C8BB00193744B049074
S1133DC0161C07AA23CB23C2724B0593A369032BAA
S1133DD001D0714B05930022A36803925D32591EF2
S1133DE0FF32914205D95E3BFF3B03935E23FF33D1
S1133DF0A360231C1C330093D023002722681B01DB
S1133E0013432360009B02933268BB00117807AA16
S1133E109858022200F016FC002839D0012F0DD149
S1133E206368002B06D1083322686360F933FF33DB
S1133E3013432360594B226813400DE0022F0CD129
S1133E40C02280212368D2001A4089008A4222D1EC
S1133E5010226260F03213432360A3685A1EA260EA
S1133E60002B15D0029B5D1C33685A1C32601B78F2
S1133E70029A029513707368013B7360002B07DC90
S1133E80C0235B00E3580498311C9847002844D1B0
S1133E900137032FB8D16368002B01D10A33636063
S1133EA01021002763686069C91A3D4BC91800F0E6
S1133EB029F9029DA368002B30D03268606911781B
S1133EC0405C00282AD030290BD12168090508D587
S1133ED0039A0137002A0BD0013A01330392A360FD
S1133EE006E021682F4B0B40236013782B700135BB
S1133EF07368013B7360002B03DD33680133336067
S1133F0007E0C0235B00E3580498311C984700285D
S1133F1004D1A368013BA360CCE700272368DB0539
S1133F200ED5009B9D4207D9BE23013D5B00297835
S1133F30E3580498321C9847009B01209D4225D0E9
S1133F40102223681A401AD12A70636804980099D1
S1133F50059EB047019B22681B68910607D4D107D0
S1133F6005D501991A1D0A601B68188004E001999F
S1133F701A1D0A601B681860E3680133E3600020BF
S1133F80009BED1A2369ED195D1925610BB0F0BD95
S1133F90644F00000542000025430000FFFAFFFFC4
S1133FA0704F0000FFF6FFFF092208B58189031C4A
S1133FB00A400020092A02D1181CFFF73BF808BD6B
S1133FC0F8B5051C0C1C002804D08369002B01D112
S1133FD0FFF786F83D4B9C4201D16C6808E03C4BEE
S1133FE09C4201D1AC6803E03A4B9C4200D1EC689E
S1133FF00023A289636093B2990663D459071AD443
S1134000D90605D409232B6037331A43A28159E01A
S1134010082633420AD0281C211CFEF7DFFF0028A3
S113402050D1A389A060B343A381A0610422A389D2
S11340301343A38112E0616B00290FD0231C443386
S1134040994202D0281CFFF75BF90020236C6063BF
S11340506360834202D0E36B236035E02369002B65
S113406003D1281C211CFFF7E9F8A789BEB2B307C6
S11340700FD00123A381184B18491868FFF7A0F843
S11340800923A7813340092B03D1281C211CFEF7E7
S11340901BFF2369281C1A1C2360216A6369656A53
S11340A0A847021C6060002082420DDCA389824282
S11340B004D120221343A381013805E04022134395
S11340C06060A38101204042F8BDC046D04E00008C
S11340D0F04E0000104F0000CC4E0000A93F00003D
S11340E038B50023064C051C081C2360FEF7DCFBD6
S11340F0431C03D12368002B00D02B6038BDC0467D
S1134100540B0020F0B50A785E2A02D04B1C002420
S113411002E001244A788B1C011C451CFF350C70FD
S11341200131A942FBD1002A01D1581E1CE0012112
S11341300C1BE7B2875419785E1C2D2906D05D2923
S11341400FD000290FD00A1C331CF2E75D785D2DD7
S1134150F9D09542F7DB023301328754AA42FBDBE4
S1134160E9E7301C00E0181CF0BD000038B50C1C59
S11341700E25495F00F098FA002803DB636D1B18D5
S1134180636503E0A289024B1340A38138BDC04696
S1134190FFEFFFFFF8B51E1C8B89051C0C1C171CB8
S11341A0DB0505D50E23C95E0022022300F036FA92
S11341B0A289054B281C1340A3813A1C0E23E15EFF
S11341C0331C00F0E1F9F8BDFFEFFFFF38B50C1C1C
S11341D00E25495F00F022FAA389421C03D1054A47
S11341E01340A38104E0802252011343A38160653C
S11341F038BDC046FFEFFFFF08B50E23C95E00F0CF
S1134200D7F908BDF0B51E1C444B87B01B68059058
S113421002930B1C039101921C78029A5D1C1219E3
S113422050780822104001D02B1CF5E72D2C04D126
S11342309D1C5C780123009304E000902B2C01D199
S11342405C789D1C002E02D0102E0AD160E0302C28
S11342505CD120222B789343582B52D110266C78B2
S11342600235009F311C7B1E9F412D4BFF18381CCB
S1134270FEF7C0FB381C0491311CFEF735FB00220D
S1134280071C131C029909194978480701D5303CC9
S113429007E00320084017D03721012800D020313F
S11342A0641AB44210DA511C0BD0BB4207D802D1B5
S11342B0049A944203DC73430122E31801E00122CF
S11342C052422C780135DDE7181C511C0BD10098A3
S11342D0059A431E9841124BC01822231360019B78
S11342E0002B0AD117E00099002900D05842019B05
S11342F0002B10D0039B002A00D06B1E019A136080
S113430009E03024002EACD10826AAE70A26A8E743
S1134310302CA6D19DE707B0F0BDC0467C0000203C
S1134320FFFFFF7FF0B51E1C3E4B87B01B68171CB8
S113433002930B1C059004911C78029A5D1C1219BF
S1134340517808220A4001D02B1CF5E72D2C04D10A
S11343509D1C5C780123019304E001922B2C01D174
S11343605C789D1C002E02D0102E0AD154E0302C13
S113437050D120222B789343582B46D110266C78A9
S113438002350120311C4042FEF7AEFA03900120B1
S1134390311C4042FEF72EFB00228C46131C02996E
S11343A009194978480701D5303C07E00320084043
S11343B017D03721012800D02031641AB44210DA12
S11343C0511C0BD0039A934206D801D1644503DCF7
S11343D073430122E31801E0012252422C78013593
S11343E0DDE7181C511C04D122230599101C0B6015
S11343F003E00199002900D05842002F0FD0049BFC
S1134400002A00D06B1E3B6009E03024002EB8D196
S11344100826B6E70A26B4E7302CB2D1A9E707B0DC
S1134420F0BDC0467C0000200B1CF7B54D6B443337
S11344300C1C9D421BD18026F600311CFEF7A6FF02
S1134440002802D10120404225E0231C6063A663BA
S113445046331A78104BC254231C45331A780F4B39
S1134460C2542A780E4BC254C018206012E08E6BDE
S1134470291C73001A1C019300F0EFF8051EE1D00B
S11344808719381C291C321CFEF710FB019B27607E
S11344906563A3630020FEBDFF030000FE0300006C
S11344A0FD030000F8B5061C0D1C141C4B1C02D1A6
S11344B00120404261E0002804D08369002B01D12F
S11344C0FEF70EFE2D4B9C4201D1746808E02C4B84
S11344D09C4201D1B46803E02A4B9C4200D1F468A9
S11344E02022A3899343A3819BB25A0713D4DA06EB
S11344F0DED508273B420AD0301C211CFEF76EFD96
S11345000028D5D1A389A060BB43A381A061042264
S1134510A3891343A381626BEDB26368002A10D0B0
S1134520A26B934206DA2368013B23601D70636823
S1134530013320E0301C211CFFF776FF0028F2D065
S1134540B6E721692268002909D08A4207D9511E99
S11345500878A84203D10133216063600DE023642D
S1134560231C443363630323A363231C4633E263A2
S11345701D7023600123281C6360F8BDD04E000029
S1134580F04E0000104F000038B5051C0020074C09
S11345902060081C111C1A1CFEF75EF9431C03D191
S11345A02368002B00D02B6038BDC046540B00207C
S11345B038B50023064C051C081C2360FEF786F959
S11345C0431C03D12368002B00D02B6038BDC046A8
S11345D0540B002038B50023064C051C081C111C84
S11345E02360FEF777F9431C03D12368002B00D026
S11345F02B6038BD540B002038B50023064C051C35
S1134600081C2360FEF76CF9431C03D12368002BBC
S113461000D02B6038BDC046540B002038B5051CB3
S11346200020074C2060081C111C1A1CFEF75AF9C4
S1134630431C03D12368002B00D02B6038BDC04637
S1134640540B0020C9B28218904204D003788B42E4
S113465002D00130F8E700207047F8B5061C0C1CA6
S1134660151C002904D1111CFEF790FE041C18E04F
S1134670002A03D1FEF744FE2C1C12E000F028F8B7
S1134680A8420ED2301C291CFEF780FE071E07D05C
S1134690211C2A1CFEF70AFA301C211CFEF730FEEE
S11346A03C1C201CF8BD000038B5051C0020074C3C
S11346B02060081C111C1A1CFEF7ACF8431C03D123
S11346C02368002B00D02B6038BDC046540B00205B
S11346D00B1F1A68101F002A04DA891804390B68A2
S11346E0D0180438704700004A0A0000900A0000FD
S11346F0BE0A0000D00A0000E20A00002E0B0000EF
S1134700620B0000740B0000280A0000280A000055
S1134710280A0000280A0000280A0000280A0000CD
S1134720280A0000280A0000280A0000280A0000BD
S1134730280A0000280A0000280A0000280A0000AD
S1134740280A0000280A0000280A0000280A00009D
S1134750280A0000280A0000280A0000280A00008D
S1134760280A0000280A0000280A0000280A00007D
S1134770280A0000280A0000280A0000280A00006D
S1134780280A0000280A0000280A0000280A00005D
S1134790280A0000280A0000280A0000280A00004D
S11347A0280A0000280A0000280A0000280A00003D
S11347B0280A0000280A0000280A0000280A00002D
S11347C0280A0000280A0000420A00004040404035
S11347D040404040404040404040404040404040D5
S11347E04040404040206576656E74207375636375
S11347F0657373204040404040404040404040404A
S1134800404040404040404040404040200D000077
S11348102A2A2A2A2A2A2A2A2A2A2A2A2A2A2A2AF4
S11348202A2A2A2A20616C61726D2073756363657C
S11348307373202121212A2A2A2A2A2A2A2A2A2A67
S11348402A2A2A2A2A2A2A2A2A2A200D0000000093
S11348500A0D20457874656E646564206D65737314
S113486061676520726563656976656420696E2099
S11348705278206275666665722E205468652072CF
S11348806563656976656420646174612069733A5F
S1134890200D00000A0D205374616E64617264205F
S11348A06D657373616765207265636569766564B8
S11348B020696E205278206275666665722E2054D7
S11348C068652072656365697665642064617461F6
S11348D02069733A200D00002020256400000000A8
S11348E00D0A0D000A0D205374616E646172642018
S11348F06D65737361676520726563656976656468
S113490020696E204649464F20302E205468652089
S11349107265636569766564206461746120697396
S11349203A200D000A0D20457874656E6465642094
S11349306D65737361676520726563656976656427
S113494020696E204649464F20312E205468652048
S11349507265636569766564206461746120697356
S11349603A200D0050726F746F636F6C2065727221
S11349706F722C20706C6561736520646F75626C56
S11349806520636865636B2074686520636C6F637E
S11349906B20696E2074776F20626F617264732E6E
S11349A0200D0A0D000000004D656E75203A0D0AB9
S11349B020202D2D2053656C656374207468652058
S11349C0616374696F6E3A0D0A2020303A20536592
S11349D074207374616E646172642066696C7465BA
S11349E07220494420303A2030783435412C2073E9
S11349F0746F726520696E746F20527820627566D8
S1134A006665722E200D0A2020313A2053657420E9
S1134A107374616E646172642066696C746572207B
S1134A20494420313A2030783436392C2073746F5D
S1134A30726520696E746F205278204649464F2073
S1134A40302E200D0A2020323A2053656E642073E4
S1134A5074616E64617264206D657373616765204F
S1134A60776974682049443A2030783435412061AC
S1134A706E6420342062797465206461746120302E
S1134A8020746F20332E200D0A2020333A205365E2
S1134A906E64207374616E64617264206D657373F7
S1134AA061676520776974682049443A2030783416
S1134AB0363920616E642034206279746520646123
S1134AC074612031323820746F203133312E200D3F
S1134AD00A2020343A2053657420657874656E6426
S1134AE065642066696C74657220494420303A20FC
S1134AF0307831303030303041352C2073746F725F
S1134B006520696E746F20527820627566666572DE
S1134B102E200D0A2020353A2053657420657874C0
S1134B20656E6465642066696C746572204944200E
S1134B30313A20307831303030303039362C2073EF
S1134B40746F726520696E746F20527820464946EE
S1134B504F20312E200D0A2020363A2053656E64F2
S1134B6020657874656E646564206D657373616730
S1134B706520776974682049443A203078313030B0
S1134B80303030413520616E64203820627974659C
S1134B902064617461203020746F20372E200D0A48
S1134BA02020373A2053656E6420657874656E64FE
S1134BB06564206D65737361676520776974682027
S1134BC049443A2030783130303030303936206141
S1134BD06E642038206279746520646174612031C8
S1134BE0323820746F203133352E200D0A2020688E
S1134BF03A20446973706C6179206D656E75200D7F
S1134C000A0D0000256300002020303A205365740B
S1134C10207374616E646172642066696C74657279
S1134C2020494420303A2030783435412C207374A4
S1134C306F726520696E746F2052782062756666A3
S1134C4065722E200D0000002020313A2053657437
S1134C50207374616E646172642066696C74657239
S1134C6020494420313A2030783436392C2073746A
S1134C706F726520696E746F205278204649464FE2
S1134C8020302E200D0000002020323A2053656E83
S1134C9064207374616E64617264206D6573736102
S1134CA0676520776974682049443A203078343540
S1134CB04120616E642034206279746520646174DB
S1134CC061203020746F20332E200D002020333AD1
S1134CD02053656E64207374616E64617264206D28
S1134CE065737361676520776974682049443A2065
S1134CF0307834363920616E6420342062797465EA
S1134D0020646174612031323820746F2031333172
S1134D102E200D002020343A2053657420657874C9
S1134D20656E6465642066696C746572204944200C
S1134D30303A20307831303030303041352C2073E7
S1134D40746F726520696E746F2052782062756684
S1134D506665722E200D00002020353A20536574BC
S1134D6020657874656E6465642066696C74657228
S1134D7020494420313A20307831303030303039D5
S1134D80362C2073746F726520696E746F205278AC
S1134D90204649464F20312E200D00002020363A6F
S1134DA02053656E6420657874656E646564206D57
S1134DB065737361676520776974682049443A2094
S1134DC03078313030303030413520616E642038F5
S1134DD020627974652064617461203020746F20CE
S1134DE0372E200D000000002020373A2053656E36
S1134DF06420657874656E646564206D65737361A1
S1134E00676520776974682049443A2030783130E6
S1134E1030303030393620616E6420382062797445
S1134E206520646174612031323820746F2031331D
S1134E30352E200D000000000100000002000000DB
S1134E400400000008000000001000000020000022
S1134E50004000000080000000000100000002008B
S1134E6000000400000008000004004200080042A2
S1134E70000C0042001000420014004200180042DE
S1134E80090A0B0C0D0E0000D61F0000D21F0000F3
S1134E90D21F00000420000004200000EE1F0000C8
S1134EA0DC1F0000F41F00007822000058220000DC
S1134EB058220000AE2200006A2200008622000070
S1134EC05C2200009422000043000000180000202F
S1134ED000000000000000000000000000000000CE
S1134EE000000000000000000000000000000000BE
S1134EF000000000000000000000000000000000AE
S1134F00000000000000000000000000000000009D
S1134F10000000000000000000000000000000008D
S1134F20000000000000000000000000000000007D
S1134F30232D302B2000686C4C006566674546477E
S1134F400030313233343536373839414243444501
S1134F504600303132333435363738396162636470
S1134F6065660000824F0000854F0000884F0000F6
S1134F70412D46612D663839303132333435363778
S1134F805D002B2D003030007858000020202020B8
S1134F9020202020202828282828202020202020E5
S1134FA020202020202020202020202088101010C5
S1134FB0101010101010101010101010040404041D
S1134FC00404040404041010101010101041414192
S1134FD041414101010101010101010101010101FD
S1134FE00101010101010110101010101042424290
S1134FF042424202020202020202020202020202CD
S1135000020202020202021010101020000000002E
S1135010000000000000000000000000000000008C
S1135020000000000000000000000000000000007C
S1135030000000000000000000000000000000006C
S1135040000000000000000000000000000000005C
S1135050000000000000000000000000000000004C
S1135060000000000000000000000000000000003C
S1135070000000000000000000000000000000002C
S1135080000000000000000000000000F8B5C04669
S1135090F8BC08BC9E467047E5000000F8B5C04661
S10F50A0F8BC08BC9E467047BD00000030
S11350AC000000000C0000000000000000000000E4
S11350BC000000000100000000000000D04E0000C1
S11350CCF04E0000104F0000000000000000000033
S11350DC0000000000000000C84E000000000000AA
S11350EC00000000000000000000000000000000B0
S11350FC00000000000000000000000000000000A0
S113510C000000000000000000000000000000008F
S113511C0000000000000000180000208B4F00006D
S90327795C
